{
  "contractName": "Patient",
  "abi": [
    {
      "constant": true,
      "inputs": [
        {
          "name": "",
          "type": "uint256"
        }
      ],
      "name": "appointments",
      "outputs": [
        {
          "name": "appointmentId",
          "type": "uint256"
        },
        {
          "name": "patientId",
          "type": "uint256"
        },
        {
          "name": "doctorId",
          "type": "uint256"
        },
        {
          "name": "date",
          "type": "string"
        },
        {
          "name": "chiefComplaint",
          "type": "string"
        },
        {
          "name": "hash",
          "type": "string"
        },
        {
          "name": "completed",
          "type": "bool"
        }
      ],
      "payable": false,
      "stateMutability": "view",
      "type": "function"
    },
    {
      "constant": true,
      "inputs": [],
      "name": "age",
      "outputs": [
        {
          "name": "",
          "type": "uint256"
        }
      ],
      "payable": false,
      "stateMutability": "view",
      "type": "function"
    },
    {
      "constant": true,
      "inputs": [],
      "name": "manager",
      "outputs": [
        {
          "name": "",
          "type": "address"
        }
      ],
      "payable": false,
      "stateMutability": "view",
      "type": "function"
    },
    {
      "constant": true,
      "inputs": [],
      "name": "gender",
      "outputs": [
        {
          "name": "",
          "type": "string"
        }
      ],
      "payable": false,
      "stateMutability": "view",
      "type": "function"
    },
    {
      "constant": true,
      "inputs": [],
      "name": "patientName",
      "outputs": [
        {
          "name": "",
          "type": "string"
        }
      ],
      "payable": false,
      "stateMutability": "view",
      "type": "function"
    },
    {
      "constant": true,
      "inputs": [
        {
          "name": "",
          "type": "uint256"
        }
      ],
      "name": "appointmentsList",
      "outputs": [
        {
          "name": "",
          "type": "uint256"
        }
      ],
      "payable": false,
      "stateMutability": "view",
      "type": "function"
    },
    {
      "constant": true,
      "inputs": [],
      "name": "patientId",
      "outputs": [
        {
          "name": "",
          "type": "uint256"
        }
      ],
      "payable": false,
      "stateMutability": "view",
      "type": "function"
    },
    {
      "constant": true,
      "inputs": [
        {
          "name": "",
          "type": "uint256"
        }
      ],
      "name": "doctorApproval",
      "outputs": [
        {
          "name": "",
          "type": "bool"
        }
      ],
      "payable": false,
      "stateMutability": "view",
      "type": "function"
    },
    {
      "inputs": [
        {
          "name": "_PatientId",
          "type": "uint256"
        },
        {
          "name": "_patientName",
          "type": "string"
        },
        {
          "name": "_gender",
          "type": "string"
        },
        {
          "name": "_age",
          "type": "uint256"
        },
        {
          "name": "_account",
          "type": "address"
        }
      ],
      "payable": false,
      "stateMutability": "nonpayable",
      "type": "constructor"
    },
    {
      "constant": true,
      "inputs": [],
      "name": "getManager",
      "outputs": [
        {
          "name": "",
          "type": "address"
        }
      ],
      "payable": false,
      "stateMutability": "view",
      "type": "function"
    },
    {
      "constant": true,
      "inputs": [],
      "name": "getPatientName",
      "outputs": [
        {
          "name": "",
          "type": "string"
        }
      ],
      "payable": false,
      "stateMutability": "view",
      "type": "function"
    },
    {
      "constant": false,
      "inputs": [
        {
          "name": "_AppointmentId",
          "type": "uint256"
        },
        {
          "name": "_PatientId",
          "type": "uint256"
        },
        {
          "name": "_DoctorId",
          "type": "uint256"
        },
        {
          "name": "_Date",
          "type": "string"
        },
        {
          "name": "_chiefComplaint",
          "type": "string"
        }
      ],
      "name": "addAppointment",
      "outputs": [],
      "payable": false,
      "stateMutability": "nonpayable",
      "type": "function"
    },
    {
      "constant": true,
      "inputs": [
        {
          "name": "_PatientId",
          "type": "uint256"
        }
      ],
      "name": "getSummary",
      "outputs": [
        {
          "name": "",
          "type": "uint256"
        },
        {
          "name": "",
          "type": "string"
        },
        {
          "name": "",
          "type": "string"
        },
        {
          "name": "",
          "type": "uint256"
        },
        {
          "name": "",
          "type": "address"
        }
      ],
      "payable": false,
      "stateMutability": "view",
      "type": "function"
    },
    {
      "constant": false,
      "inputs": [
        {
          "name": "appointmentId",
          "type": "uint256"
        },
        {
          "name": "prescription",
          "type": "string"
        }
      ],
      "name": "addPrescription",
      "outputs": [
        {
          "name": "",
          "type": "uint256"
        }
      ],
      "payable": false,
      "stateMutability": "nonpayable",
      "type": "function"
    },
    {
      "constant": true,
      "inputs": [],
      "name": "getAppointmentList",
      "outputs": [
        {
          "name": "",
          "type": "uint256"
        }
      ],
      "payable": false,
      "stateMutability": "view",
      "type": "function"
    },
    {
      "constant": false,
      "inputs": [
        {
          "name": "doctorId",
          "type": "uint256"
        }
      ],
      "name": "addDoctorApproval",
      "outputs": [],
      "payable": false,
      "stateMutability": "nonpayable",
      "type": "function"
    },
    {
      "constant": false,
      "inputs": [
        {
          "name": "doctorId",
          "type": "uint256"
        }
      ],
      "name": "blockDoctor",
      "outputs": [],
      "payable": false,
      "stateMutability": "nonpayable",
      "type": "function"
    },
    {
      "constant": false,
      "inputs": [
        {
          "name": "doctorId",
          "type": "uint256"
        }
      ],
      "name": "restricted",
      "outputs": [],
      "payable": false,
      "stateMutability": "nonpayable",
      "type": "function"
    }
  ],
  "bytecode": "0x60806040523480156200001157600080fd5b50604051620014a5380380620014a58339810180604052810190808051906020019092919080518201929190602001805182019291906020018051906020019092919080519060200190929190505050836001908051906020019062000079929190620000ed565b50826003908051906020019062000092929190620000ed565b508160048190555080600560006101000a81548173ffffffffffffffffffffffffffffffffffffffff021916908373ffffffffffffffffffffffffffffffffffffffff1602179055508460028190555050505050506200019c565b828054600181600116156101000203166002900490600052602060002090601f016020900481019282601f106200013057805160ff191683800117855562000161565b8280016001018555821562000161579182015b828111156200016057825182559160200191906001019062000143565b5b50905062000170919062000174565b5090565b6200019991905b80821115620001955760008160009055506001016200017b565b5090565b90565b6112f980620001ac6000396000f3006080604052600436106100f1576000357c0100000000000000000000000000000000000000000000000000000000900463ffffffff16806312dc9013146100f6578063262a9dff146102945780633b17b94b146102bf5780634564d890146102ec578063466c6db714610319578063481c6a75146103e657806379caad861461043d578063870be7dd146104cd578063975a430f1461055d5780639788ffc61461058857806398f6f0e1146105b5578063aee1446014610645578063c33465fa14610798578063d5009584146107d9578063e07f444414610830578063e09183a61461085b578063e571fd2d146108a0575b600080fd5b34801561010257600080fd5b5061012160048036038101908080359060200190929190505050610927565b6040518088815260200187815260200186815260200180602001806020018060200185151515158152602001848103845288818151815260200191508051906020019080838360005b8381101561018557808201518184015260208101905061016a565b50505050905090810190601f1680156101b25780820380516001836020036101000a031916815260200191505b50848103835287818151815260200191508051906020019080838360005b838110156101eb5780820151818401526020810190506101d0565b50505050905090810190601f1680156102185780820380516001836020036101000a031916815260200191505b50848103825286818151815260200191508051906020019080838360005b83811015610251578082015181840152602081019050610236565b50505050905090810190601f16801561027e5780820380516001836020036101000a031916815260200191505b509a505050505050505050505060405180910390f35b3480156102a057600080fd5b506102a9610b3e565b6040518082815260200191505060405180910390f35b3480156102cb57600080fd5b506102ea60048036038101908080359060200190929190505050610b44565b005b3480156102f857600080fd5b5061031760048036038101908080359060200190929190505050610b73565b005b34801561032557600080fd5b506103e4600480360381019080803590602001909291908035906020019092919080359060200190929190803590602001908201803590602001908080601f0160208091040260200160405190810160405280939291908181526020018383808284378201915050505050509192919290803590602001908201803590602001908080601f0160208091040260200160405190810160405280939291908181526020018383808284378201915050505050509192919290505050610ba2565b005b3480156103f257600080fd5b506103fb610cd3565b604051808273ffffffffffffffffffffffffffffffffffffffff1673ffffffffffffffffffffffffffffffffffffffff16815260200191505060405180910390f35b34801561044957600080fd5b50610452610cf9565b6040518080602001828103825283818151815260200191508051906020019080838360005b83811015610492578082015181840152602081019050610477565b50505050905090810190601f1680156104bf5780820380516001836020036101000a031916815260200191505b509250505060405180910390f35b3480156104d957600080fd5b506104e2610d97565b6040518080602001828103825283818151815260200191508051906020019080838360005b83811015610522578082015181840152602081019050610507565b50505050905090810190601f16801561054f5780820380516001836020036101000a031916815260200191505b509250505060405180910390f35b34801561056957600080fd5b50610572610e39565b6040518082815260200191505060405180910390f35b34801561059457600080fd5b506105b360048036038101908080359060200190929190505050610e46565b005b3480156105c157600080fd5b506105ca610e75565b6040518080602001828103825283818151815260200191508051906020019080838360005b8381101561060a5780820151818401526020810190506105ef565b50505050905090810190601f1680156106375780820380516001836020036101000a031916815260200191505b509250505060405180910390f35b34801561065157600080fd5b5061067060048036038101908080359060200190929190505050610f13565b6040518086815260200180602001806020018581526020018473ffffffffffffffffffffffffffffffffffffffff1673ffffffffffffffffffffffffffffffffffffffff168152602001838103835287818151815260200191508051906020019080838360005b838110156106f25780820151818401526020810190506106d7565b50505050905090810190601f16801561071f5780820380516001836020036101000a031916815260200191505b50838103825286818151815260200191508051906020019080838360005b8381101561075857808201518184015260208101905061073d565b50505050905090810190601f1680156107855780820380516001836020036101000a031916815260200191505b5097505050505050505060405180910390f35b3480156107a457600080fd5b506107c360048036038101908080359060200190929190505050611093565b6040518082815260200191505060405180910390f35b3480156107e557600080fd5b506107ee6110b6565b604051808273ffffffffffffffffffffffffffffffffffffffff1673ffffffffffffffffffffffffffffffffffffffff16815260200191505060405180910390f35b34801561083c57600080fd5b506108456110e0565b6040518082815260200191505060405180910390f35b34801561086757600080fd5b50610886600480360381019080803590602001909291905050506110e6565b604051808215151515815260200191505060405180910390f35b3480156108ac57600080fd5b5061091160048036038101908080359060200190929190803590602001908201803590602001908080601f0160208091040260200160405190810160405280939291908181526020018383808284378201915050505050509192919290505050611106565b6040518082815260200191505060405180910390f35b6008602052806000526040600020600091509050806000015490806001015490806002015490806003018054600181600116156101000203166002900480601f0160208091040260200160405190810160405280929190818152602001828054600181600116156101000203166002900480156109e55780601f106109ba576101008083540402835291602001916109e5565b820191906000526020600020905b8154815290600101906020018083116109c857829003601f168201915b505050505090806004018054600181600116156101000203166002900480601f016020809104026020016040519081016040528092919081815260200182805460018160011615610100020316600290048015610a835780601f10610a5857610100808354040283529160200191610a83565b820191906000526020600020905b815481529060010190602001808311610a6657829003601f168201915b505050505090806005018054600181600116156101000203166002900480601f016020809104026020016040519081016040528092919081815260200182805460018160011615610100020316600290048015610b215780601f10610af657610100808354040283529160200191610b21565b820191906000526020600020905b815481529060010190602001808311610b0457829003601f168201915b5050505050908060060160009054906101000a900460ff16905087565b60045481565b6006600082815260200190815260200160002060009054906101000a900460ff161515610b7057600080fd5b50565b60006006600083815260200190815260200160002060006101000a81548160ff02191690831515021790555050565b610baa611168565b60e0604051908101604052808781526020018681526020018581526020018481526020018381526020016020604051908101604052806000815250815260200160001515815250905080600860008881526020019081526020016000206000820151816000015560208201518160010155604082015181600201556060820151816003019080519060200190610c419291906111a8565b506080820151816004019080519060200190610c5e9291906111a8565b5060a0820151816005019080519060200190610c7b9291906111a8565b5060c08201518160060160006101000a81548160ff0219169083151502179055509050506007869080600181540180825580915050906001820390600052602060002001600090919290919091505550505050505050565b600560009054906101000a900473ffffffffffffffffffffffffffffffffffffffff1681565b60038054600181600116156101000203166002900480601f016020809104026020016040519081016040528092919081815260200182805460018160011615610100020316600290048015610d8f5780601f10610d6457610100808354040283529160200191610d8f565b820191906000526020600020905b815481529060010190602001808311610d7257829003601f168201915b505050505081565b606060018054600181600116156101000203166002900480601f016020809104026020016040519081016040528092919081815260200182805460018160011615610100020316600290048015610e2f5780601f10610e0457610100808354040283529160200191610e2f565b820191906000526020600020905b815481529060010190602001808311610e1257829003601f168201915b5050505050905090565b6000600780549050905090565b60016006600083815260200190815260200160002060006101000a81548160ff02191690831515021790555050565b60018054600181600116156101000203166002900480601f016020809104026020016040519081016040528092919081815260200182805460018160011615610100020316600290048015610f0b5780601f10610ee057610100808354040283529160200191610f0b565b820191906000526020600020905b815481529060010190602001808311610eee57829003601f168201915b505050505081565b600060608060008060025460016003600454600560009054906101000a900473ffffffffffffffffffffffffffffffffffffffff16838054600181600116156101000203166002900480601f016020809104026020016040519081016040528092919081815260200182805460018160011615610100020316600290048015610fdd5780601f10610fb257610100808354040283529160200191610fdd565b820191906000526020600020905b815481529060010190602001808311610fc057829003601f168201915b50505050509350828054600181600116156101000203166002900480601f0160208091040260200160405190810160405280929190818152602001828054600181600116156101000203166002900480156110795780601f1061104e57610100808354040283529160200191611079565b820191906000526020600020905b81548152906001019060200180831161105c57829003601f168201915b505050505092509450945094509450945091939590929450565b6007818154811015156110a257fe5b906000526020600020016000915090505481565b6000600560009054906101000a900473ffffffffffffffffffffffffffffffffffffffff16905090565b60025481565b60066020528060005260406000206000915054906101000a900460ff1681565b600081600860008581526020019081526020016000206005019080519060200190611132929190611228565b5060016008600085815260200190815260200160002060060160006101000a81548160ff02191690831515021790555092915050565b60e0604051908101604052806000815260200160008152602001600081526020016060815260200160608152602001606081526020016000151581525090565b828054600181600116156101000203166002900490600052602060002090601f016020900481019282601f106111e957805160ff1916838001178555611217565b82800160010185558215611217579182015b828111156112165782518255916020019190600101906111fb565b5b50905061122491906112a8565b5090565b828054600181600116156101000203166002900490600052602060002090601f016020900481019282601f1061126957805160ff1916838001178555611297565b82800160010185558215611297579182015b8281111561129657825182559160200191906001019061127b565b5b5090506112a491906112a8565b5090565b6112ca91905b808211156112c65760008160009055506001016112ae565b5090565b905600a165627a7a7230582092a9fe7b3ebc0520c4d5d972abb0375121937ee95cd6c4cdc9d84563ecbb47480029",
  "source": "pragma solidity ^0.4.24;\nimport \"./Receptionist.sol\";\ncontract Patient{\n\n    ReceptionsitFactory factory;\n    string public patientName;\n    uint public patientId;\n    string public gender;\n    uint public age;\n    address public manager;\n    mapping(uint => bool) public doctorApproval;\n\n    struct Appointment{\n        uint appointmentId;\n        uint patientId;\n        uint doctorId;\n        string date;\n        string chiefComplaint;\n        string hash;\n        bool completed;\n    }\n    uint[] public appointmentsList;\n\n\n    mapping(uint=>Appointment) public appointments;\n\n    constructor( uint _PatientId  , string _patientName, string _gender, uint _age , address _account){\n        patientName = _patientName;\n        gender = _gender;\n        age = _age;\n        manager = _account;\n        patientId = _PatientId;\n\n    }\n\n\n    function getManager() public view returns(address){\n        return (manager);\n    }\n\n\n      function getPatientName() public view returns( string){\n          return(patientName);\n      }\n\n\n      function addAppointment(uint _AppointmentId, uint _PatientId , uint _DoctorId , string _Date , string _chiefComplaint) public{\n          Appointment memory newAppointment = Appointment({\n              appointmentId : _AppointmentId ,\n              patientId : _PatientId ,\n              doctorId : _DoctorId ,\n              date : _Date ,\n              chiefComplaint : _chiefComplaint,\n              hash : '',\n              completed: false\n\n\n          });\n\n          appointments[_AppointmentId]=newAppointment;\n\n          appointmentsList.push(_AppointmentId);\n      }\n\n\n    function getSummary(uint _PatientId) public view returns(uint , string , string , uint , address){\n              return(patientId , patientName , gender , age , manager);\n            }\n\n\n    function addPrescription(uint appointmentId , string prescription) public returns(uint){\n            appointments[appointmentId].hash = prescription;\n            appointments[appointmentId].completed = true;\n\n    }\n\n    function getAppointmentList() public view returns(uint){\n        return appointmentsList.length;\n    }\n\n\n    function addDoctorApproval(uint doctorId) public{\n            doctorApproval[doctorId] = true;\n        }\n    function blockDoctor(uint doctorId) public{\n        doctorApproval[doctorId] = false;\n    }\n\n    function restricted(uint doctorId) public{\n        require(doctorApproval[doctorId]);\n\n    }\n}\n",
  "sourcePath": "/home/aman/Downloads/healthcare/contracts/Patient.sol",
  "compiler": {
    "name": "solc",
    "version": "0.4.24+commit.e67f0147.Emscripten.clang"
  },
  "schemaVersion": "2.0.1",
  "updatedAt": "2019-01-07T18:42:37.866Z"
}