{
  "contractName": "ReceptionsitFactory",
  "abi": [
    {
      "constant": true,
      "inputs": [],
      "name": "newReceptionist",
      "outputs": [
        {
          "name": "",
          "type": "address"
        }
      ],
      "payable": false,
      "stateMutability": "view",
      "type": "function"
    },
    {
      "constant": true,
      "inputs": [
        {
          "name": "",
          "type": "address"
        }
      ],
      "name": "accountCheck",
      "outputs": [
        {
          "name": "",
          "type": "bool"
        }
      ],
      "payable": false,
      "stateMutability": "view",
      "type": "function"
    },
    {
      "constant": true,
      "inputs": [
        {
          "name": "",
          "type": "uint256"
        }
      ],
      "name": "deployedReceptionist",
      "outputs": [
        {
          "name": "",
          "type": "address"
        }
      ],
      "payable": false,
      "stateMutability": "view",
      "type": "function"
    },
    {
      "constant": true,
      "inputs": [
        {
          "name": "",
          "type": "address"
        }
      ],
      "name": "accountToAddressPatient",
      "outputs": [
        {
          "name": "",
          "type": "address"
        }
      ],
      "payable": false,
      "stateMutability": "view",
      "type": "function"
    },
    {
      "constant": true,
      "inputs": [
        {
          "name": "",
          "type": "uint256"
        }
      ],
      "name": "doctorId",
      "outputs": [
        {
          "name": "",
          "type": "uint256"
        }
      ],
      "payable": false,
      "stateMutability": "view",
      "type": "function"
    },
    {
      "constant": true,
      "inputs": [],
      "name": "manager",
      "outputs": [
        {
          "name": "",
          "type": "address"
        }
      ],
      "payable": false,
      "stateMutability": "view",
      "type": "function"
    },
    {
      "constant": true,
      "inputs": [
        {
          "name": "",
          "type": "address"
        }
      ],
      "name": "accountToAddressDoctor",
      "outputs": [
        {
          "name": "",
          "type": "address"
        }
      ],
      "payable": false,
      "stateMutability": "view",
      "type": "function"
    },
    {
      "constant": true,
      "inputs": [
        {
          "name": "",
          "type": "uint256"
        }
      ],
      "name": "checkDoctorId",
      "outputs": [
        {
          "name": "",
          "type": "bool"
        }
      ],
      "payable": false,
      "stateMutability": "view",
      "type": "function"
    },
    {
      "constant": true,
      "inputs": [
        {
          "name": "",
          "type": "uint256"
        }
      ],
      "name": "doctorIdToAddress",
      "outputs": [
        {
          "name": "",
          "type": "address"
        }
      ],
      "payable": false,
      "stateMutability": "view",
      "type": "function"
    },
    {
      "constant": true,
      "inputs": [],
      "name": "doctor",
      "outputs": [
        {
          "name": "",
          "type": "address"
        }
      ],
      "payable": false,
      "stateMutability": "view",
      "type": "function"
    },
    {
      "constant": true,
      "inputs": [],
      "name": "factoryAddress",
      "outputs": [
        {
          "name": "",
          "type": "address"
        }
      ],
      "payable": false,
      "stateMutability": "view",
      "type": "function"
    },
    {
      "constant": true,
      "inputs": [
        {
          "name": "",
          "type": "uint256"
        }
      ],
      "name": "patientId",
      "outputs": [
        {
          "name": "",
          "type": "uint256"
        }
      ],
      "payable": false,
      "stateMutability": "view",
      "type": "function"
    },
    {
      "constant": true,
      "inputs": [
        {
          "name": "",
          "type": "uint256"
        }
      ],
      "name": "appointements",
      "outputs": [
        {
          "name": "appointementId",
          "type": "uint256"
        },
        {
          "name": "patientId",
          "type": "uint256"
        },
        {
          "name": "doctorId",
          "type": "uint256"
        },
        {
          "name": "date",
          "type": "string"
        },
        {
          "name": "chepComplaint",
          "type": "string"
        }
      ],
      "payable": false,
      "stateMutability": "view",
      "type": "function"
    },
    {
      "constant": true,
      "inputs": [
        {
          "name": "",
          "type": "address"
        }
      ],
      "name": "accountToAddress",
      "outputs": [
        {
          "name": "",
          "type": "address"
        }
      ],
      "payable": false,
      "stateMutability": "view",
      "type": "function"
    },
    {
      "constant": true,
      "inputs": [],
      "name": "patient",
      "outputs": [
        {
          "name": "",
          "type": "address"
        }
      ],
      "payable": false,
      "stateMutability": "view",
      "type": "function"
    },
    {
      "constant": true,
      "inputs": [
        {
          "name": "",
          "type": "uint256"
        }
      ],
      "name": "patientIdToAddress",
      "outputs": [
        {
          "name": "",
          "type": "address"
        }
      ],
      "payable": false,
      "stateMutability": "view",
      "type": "function"
    },
    {
      "constant": true,
      "inputs": [
        {
          "name": "",
          "type": "uint256"
        }
      ],
      "name": "receptionSummary",
      "outputs": [
        {
          "name": "hospitalName",
          "type": "string"
        },
        {
          "name": "receptionistName",
          "type": "string"
        },
        {
          "name": "manager",
          "type": "address"
        },
        {
          "name": "contractAddress",
          "type": "address"
        }
      ],
      "payable": false,
      "stateMutability": "view",
      "type": "function"
    },
    {
      "constant": true,
      "inputs": [
        {
          "name": "",
          "type": "uint256"
        }
      ],
      "name": "checkPatientId",
      "outputs": [
        {
          "name": "",
          "type": "bool"
        }
      ],
      "payable": false,
      "stateMutability": "view",
      "type": "function"
    },
    {
      "constant": true,
      "inputs": [],
      "name": "patientAddress",
      "outputs": [
        {
          "name": "",
          "type": "address"
        }
      ],
      "payable": false,
      "stateMutability": "view",
      "type": "function"
    },
    {
      "inputs": [],
      "payable": false,
      "stateMutability": "nonpayable",
      "type": "constructor"
    },
    {
      "constant": false,
      "inputs": [
        {
          "name": "_hospitalName",
          "type": "string"
        },
        {
          "name": "_name",
          "type": "string"
        }
      ],
      "name": "createReceptionist",
      "outputs": [],
      "payable": false,
      "stateMutability": "nonpayable",
      "type": "function"
    },
    {
      "constant": true,
      "inputs": [],
      "name": "getReceptionList",
      "outputs": [
        {
          "name": "",
          "type": "uint256"
        }
      ],
      "payable": false,
      "stateMutability": "view",
      "type": "function"
    },
    {
      "constant": true,
      "inputs": [],
      "name": "getDeployedCompaigns",
      "outputs": [
        {
          "name": "",
          "type": "address[]"
        }
      ],
      "payable": false,
      "stateMutability": "view",
      "type": "function"
    },
    {
      "constant": false,
      "inputs": [
        {
          "name": "_patientId",
          "type": "uint256"
        },
        {
          "name": "_patientName",
          "type": "string"
        },
        {
          "name": "_gender",
          "type": "string"
        },
        {
          "name": "_age",
          "type": "uint256"
        },
        {
          "name": "_account",
          "type": "address"
        }
      ],
      "name": "addPatient",
      "outputs": [],
      "payable": false,
      "stateMutability": "nonpayable",
      "type": "function"
    },
    {
      "constant": false,
      "inputs": [
        {
          "name": "_DoctorId",
          "type": "uint256"
        },
        {
          "name": "_DoctorName",
          "type": "string"
        },
        {
          "name": "_DoctorGender",
          "type": "string"
        },
        {
          "name": "_qualification",
          "type": "string"
        },
        {
          "name": "_account",
          "type": "address"
        }
      ],
      "name": "addDoctor",
      "outputs": [],
      "payable": false,
      "stateMutability": "nonpayable",
      "type": "function"
    },
    {
      "constant": true,
      "inputs": [],
      "name": "getPatientList",
      "outputs": [
        {
          "name": "",
          "type": "uint256"
        }
      ],
      "payable": false,
      "stateMutability": "view",
      "type": "function"
    },
    {
      "constant": true,
      "inputs": [],
      "name": "getDoctorList",
      "outputs": [
        {
          "name": "",
          "type": "uint256"
        }
      ],
      "payable": false,
      "stateMutability": "view",
      "type": "function"
    },
    {
      "constant": false,
      "inputs": [
        {
          "name": "_AppointementId",
          "type": "uint256"
        },
        {
          "name": "_PatientId",
          "type": "uint256"
        },
        {
          "name": "_DoctorId",
          "type": "uint256"
        },
        {
          "name": "_Date",
          "type": "string"
        },
        {
          "name": "_chepComplaint",
          "type": "string"
        }
      ],
      "name": "createAppointment",
      "outputs": [],
      "payable": false,
      "stateMutability": "nonpayable",
      "type": "function"
    },
    {
      "constant": true,
      "inputs": [
        {
          "name": "patientId",
          "type": "uint256"
        }
      ],
      "name": "getPatientAddress",
      "outputs": [
        {
          "name": "",
          "type": "address"
        }
      ],
      "payable": false,
      "stateMutability": "view",
      "type": "function"
    },
    {
      "constant": true,
      "inputs": [
        {
          "name": "_DoctorId",
          "type": "uint256"
        }
      ],
      "name": "getDoctorAddress",
      "outputs": [
        {
          "name": "",
          "type": "address"
        }
      ],
      "payable": false,
      "stateMutability": "view",
      "type": "function"
    }
  ],
  "bytecode": "0x608060405234801561001057600080fd5b5030600260006101000a81548173ffffffffffffffffffffffffffffffffffffffff021916908373ffffffffffffffffffffffffffffffffffffffff160217905550615dd6806100616000396000f30060806040526004361062000193576000357c0100000000000000000000000000000000000000000000000000000000900463ffffffff168063013949a6146200019857806302799d7914620001f2578063097ee8cd1462000250578063188fc72914620002c05780631d51b14414620003305780632d042b0f14620003b65780632de6f2ff14620003fa5780633c6187e914620004ca578063481c6a75146200057c578063503b135414620005d657806354c933a7146200060457806358c9aa44146200068a5780635dec205614620006fb57806365e0db071462000743578063763a32f314620007715780637ea7118c14620007e1578063834b5d47146200083b5780639319320914620008ab578063966dae0e14620009915780639d89a41c14620009eb5780639e57f3791462000b0d578063a0a3872c1462000b51578063a71aefc91462000c81578063b969463f1462000caf578063bd96bd201462000d35578063c2c9a9bc1462000d8f578063c8eb63471462000dff578063d0ac3c631462000f80578063f9d344c91462000fc8575b600080fd5b348015620001a557600080fd5b50620001b062001022565b604051808273ffffffffffffffffffffffffffffffffffffffff1673ffffffffffffffffffffffffffffffffffffffff16815260200191505060405180910390f35b348015620001ff57600080fd5b5062000236600480360381019080803573ffffffffffffffffffffffffffffffffffffffff16906020019092919050505062001048565b604051808215151515815260200191505060405180910390f35b3480156200025d57600080fd5b506200027e6004803603810190808035906020019092919050505062001068565b604051808273ffffffffffffffffffffffffffffffffffffffff1673ffffffffffffffffffffffffffffffffffffffff16815260200191505060405180910390f35b348015620002cd57600080fd5b50620002ee60048036038101908080359060200190929190505050620010a5565b604051808273ffffffffffffffffffffffffffffffffffffffff1673ffffffffffffffffffffffffffffffffffffffff16815260200191505060405180910390f35b3480156200033d57600080fd5b5062000374600480360381019080803573ffffffffffffffffffffffffffffffffffffffff169060200190929190505050620010e4565b604051808273ffffffffffffffffffffffffffffffffffffffff1673ffffffffffffffffffffffffffffffffffffffff16815260200191505060405180910390f35b348015620003c357600080fd5b50620003e46004803603810190808035906020019092919050505062001117565b6040518082815260200191505060405180910390f35b3480156200040757600080fd5b50620004c8600480360381019080803590602001909291908035906020019092919080359060200190929190803590602001908201803590602001908080601f0160208091040260200160405190810160405280939291908181526020018383808284378201915050505050509192919290803590602001908201803590602001908080601f01602080910402602001604051908101604052809392919081815260200183838082843782019150505050505091929192905050506200113b565b005b348015620004d757600080fd5b506200057a600480360381019080803590602001908201803590602001908080601f0160208091040260200160405190810160405280939291908181526020018383808284378201915050505050509192919290803590602001908201803590602001908080601f016020809104026020016040519081016040528093929190818152602001838380828437820191505050505050919291929050505062001563565b005b3480156200058957600080fd5b506200059462001a3a565b604051808273ffffffffffffffffffffffffffffffffffffffff1673ffffffffffffffffffffffffffffffffffffffff16815260200191505060405180910390f35b348015620005e357600080fd5b50620005ee62001a60565b6040518082815260200191505060405180910390f35b3480156200061157600080fd5b5062000648600480360381019080803573ffffffffffffffffffffffffffffffffffffffff16906020019092919050505062001a6d565b604051808273ffffffffffffffffffffffffffffffffffffffff1673ffffffffffffffffffffffffffffffffffffffff16815260200191505060405180910390f35b3480156200069757600080fd5b50620006a262001aa0565b6040518080602001828103825283818151815260200191508051906020019060200280838360005b83811015620006e7578082015181840152602081019050620006ca565b505050509050019250505060405180910390f35b3480156200070857600080fd5b50620007296004803603810190808035906020019092919050505062001b30565b604051808215151515815260200191505060405180910390f35b3480156200075057600080fd5b506200075b62001b50565b6040518082815260200191505060405180910390f35b3480156200077e57600080fd5b506200079f6004803603810190808035906020019092919050505062001b5d565b604051808273ffffffffffffffffffffffffffffffffffffffff1673ffffffffffffffffffffffffffffffffffffffff16815260200191505060405180910390f35b348015620007ee57600080fd5b50620007f962001b90565b604051808273ffffffffffffffffffffffffffffffffffffffff1673ffffffffffffffffffffffffffffffffffffffff16815260200191505060405180910390f35b3480156200084857600080fd5b50620008696004803603810190808035906020019092919050505062001bb6565b604051808273ffffffffffffffffffffffffffffffffffffffff1673ffffffffffffffffffffffffffffffffffffffff16815260200191505060405180910390f35b348015620008b857600080fd5b506200098f60048036038101908080359060200190929190803590602001908201803590602001908080601f0160208091040260200160405190810160405280939291908181526020018383808284378201915050505050509192919290803590602001908201803590602001908080601f016020809104026020016040519081016040528093929190818152602001838380828437820191505050505050919291929080359060200190929190803573ffffffffffffffffffffffffffffffffffffffff16906020019092919050505062001bf3565b005b3480156200099e57600080fd5b50620009a962001f23565b604051808273ffffffffffffffffffffffffffffffffffffffff1673ffffffffffffffffffffffffffffffffffffffff16815260200191505060405180910390f35b348015620009f857600080fd5b5062000b0b60048036038101908080359060200190929190803590602001908201803590602001908080601f0160208091040260200160405190810160405280939291908181526020018383808284378201915050505050509192919290803590602001908201803590602001908080601f0160208091040260200160405190810160405280939291908181526020018383808284378201915050505050509192919290803590602001908201803590602001908080601f0160208091040260200160405190810160405280939291908181526020018383808284378201915050505050509192919290803573ffffffffffffffffffffffffffffffffffffffff16906020019092919050505062001f49565b005b34801562000b1a57600080fd5b5062000b3b6004803603810190808035906020019092919050505062002339565b6040518082815260200191505060405180910390f35b34801562000b5e57600080fd5b5062000b7f600480360381019080803590602001909291905050506200235d565b604051808681526020018581526020018481526020018060200180602001838103835285818151815260200191508051906020019080838360005b8381101562000bd757808201518184015260208101905062000bba565b50505050905090810190601f16801562000c055780820380516001836020036101000a031916815260200191505b50838103825284818151815260200191508051906020019080838360005b8381101562000c4057808201518184015260208101905062000c23565b50505050905090810190601f16801562000c6e5780820380516001836020036101000a031916815260200191505b5097505050505050505060405180910390f35b34801562000c8e57600080fd5b5062000c99620024cb565b6040518082815260200191505060405180910390f35b34801562000cbc57600080fd5b5062000cf3600480360381019080803573ffffffffffffffffffffffffffffffffffffffff169060200190929190505050620024d8565b604051808273ffffffffffffffffffffffffffffffffffffffff1673ffffffffffffffffffffffffffffffffffffffff16815260200191505060405180910390f35b34801562000d4257600080fd5b5062000d4d6200250b565b604051808273ffffffffffffffffffffffffffffffffffffffff1673ffffffffffffffffffffffffffffffffffffffff16815260200191505060405180910390f35b34801562000d9c57600080fd5b5062000dbd6004803603810190808035906020019092919050505062002531565b604051808273ffffffffffffffffffffffffffffffffffffffff1673ffffffffffffffffffffffffffffffffffffffff16815260200191505060405180910390f35b34801562000e0c57600080fd5b5062000e2d6004803603810190808035906020019092919050505062002564565b6040518080602001806020018573ffffffffffffffffffffffffffffffffffffffff1673ffffffffffffffffffffffffffffffffffffffff1681526020018473ffffffffffffffffffffffffffffffffffffffff1673ffffffffffffffffffffffffffffffffffffffff168152602001838103835287818151815260200191508051906020019080838360005b8381101562000ed757808201518184015260208101905062000eba565b50505050905090810190601f16801562000f055780820380516001836020036101000a031916815260200191505b50838103825286818151815260200191508051906020019080838360005b8381101562000f4057808201518184015260208101905062000f23565b50505050905090810190601f16801562000f6e5780820380516001836020036101000a031916815260200191505b50965050505050505060405180910390f35b34801562000f8d57600080fd5b5062000fae600480360381019080803590602001909291905050506200271c565b604051808215151515815260200191505060405180910390f35b34801562000fd557600080fd5b5062000fe06200273c565b604051808273ffffffffffffffffffffffffffffffffffffffff1673ffffffffffffffffffffffffffffffffffffffff16815260200191505060405180910390f35b600860009054906101000a900473ffffffffffffffffffffffffffffffffffffffff1681565b60076020528060005260406000206000915054906101000a900460ff1681565b6000600b600083815260200190815260200160002060009054906101000a900473ffffffffffffffffffffffffffffffffffffffff169050919050565b600581815481101515620010b557fe5b906000526020600020016000915054906101000a900473ffffffffffffffffffffffffffffffffffffffff1681565b600a6020528060005260406000206000915054906101000a900473ffffffffffffffffffffffffffffffffffffffff1681565b6012818154811015156200112757fe5b906000526020600020016000915090505481565b6200114562002762565b600080600060a0604051908101604052808a8152602001898152602001888152602001878152602001868152509350836000808b81526020019081526020016000206000820151816000015560208201518160010155604082015181600201556060820151816003019080519060200190620011c392919062002792565b506080820151816004019080519060200190620011e292919062002792565b50905050620011f18862001068565b600e60006101000a81548173ffffffffffffffffffffffffffffffffffffffff021916908373ffffffffffffffffffffffffffffffffffffffff160217905550600e60009054906101000a900473ffffffffffffffffffffffffffffffffffffffff1692508273ffffffffffffffffffffffffffffffffffffffff1663466c6db78a8a8a8a8a6040518663ffffffff167c0100000000000000000000000000000000000000000000000000000000028152600401808681526020018581526020018481526020018060200180602001838103835285818151815260200191508051906020019080838360005b83811015620012fa578082015181840152602081019050620012dd565b50505050905090810190601f168015620013285780820380516001836020036101000a031916815260200191505b50838103825284818151815260200191508051906020019080838360005b838110156200136357808201518184015260208101905062001346565b50505050905090810190601f168015620013915780820380516001836020036101000a031916815260200191505b50975050505050505050600060405180830381600087803b158015620013b657600080fd5b505af1158015620013cb573d6000803e3d6000fd5b50505050620013da8762001bb6565b91508190508073ffffffffffffffffffffffffffffffffffffffff1663466c6db78a8a8a8a8a6040518663ffffffff167c0100000000000000000000000000000000000000000000000000000000028152600401808681526020018581526020018481526020018060200180602001838103835285818151815260200191508051906020019080838360005b838110156200148357808201518184015260208101905062001466565b50505050905090810190601f168015620014b15780820380516001836020036101000a031916815260200191505b50838103825284818151815260200191508051906020019080838360005b83811015620014ec578082015181840152602081019050620014cf565b50505050905090810190601f1680156200151a5780820380516001836020036101000a031916815260200191505b50975050505050505050600060405180830381600087803b1580156200153f57600080fd5b505af115801562001554573d6000803e3d6000fd5b50505050505050505050505050565b6200156d62002819565b600760003373ffffffffffffffffffffffffffffffffffffffff1673ffffffffffffffffffffffffffffffffffffffff16815260200190815260200160002060009054906101000a900460ff16151515620015c757600080fd5b828233620015d46200286e565b8080602001806020018473ffffffffffffffffffffffffffffffffffffffff1673ffffffffffffffffffffffffffffffffffffffff168152602001838103835286818151815260200191508051906020019080838360005b83811015620016495780820151818401526020810190506200162c565b50505050905090810190601f168015620016775780820380516001836020036101000a031916815260200191505b50838103825285818151815260200191508051906020019080838360005b83811015620016b257808201518184015260208101905062001695565b50505050905090810190601f168015620016e05780820380516001836020036101000a031916815260200191505b5095505050505050604051809103906000f08015801562001705573d6000803e3d6000fd5b50600860006101000a81548173ffffffffffffffffffffffffffffffffffffffff021916908373ffffffffffffffffffffffffffffffffffffffff1602179055506005600860009054906101000a900473ffffffffffffffffffffffffffffffffffffffff1690806001815401808255809150509060018203906000526020600020016000909192909190916101000a81548173ffffffffffffffffffffffffffffffffffffffff021916908373ffffffffffffffffffffffffffffffffffffffff16021790555050600860009054906101000a900473ffffffffffffffffffffffffffffffffffffffff16600660003373ffffffffffffffffffffffffffffffffffffffff1673ffffffffffffffffffffffffffffffffffffffff16815260200190815260200160002060006101000a81548173ffffffffffffffffffffffffffffffffffffffff021916908373ffffffffffffffffffffffffffffffffffffffff1602179055506001600760003373ffffffffffffffffffffffffffffffffffffffff1673ffffffffffffffffffffffffffffffffffffffff16815260200190815260200160002060006101000a81548160ff0219169083151502179055506080604051908101604052808481526020018381526020013373ffffffffffffffffffffffffffffffffffffffff168152602001600860009054906101000a900473ffffffffffffffffffffffffffffffffffffffff1673ffffffffffffffffffffffffffffffffffffffff1681525090506001819080600181540180825580915050906001820390600052602060002090600402016000909192909190915060008201518160000190805190602001906200198492919062002792565b506020820151816001019080519060200190620019a392919062002792565b5060408201518160020160006101000a81548173ffffffffffffffffffffffffffffffffffffffff021916908373ffffffffffffffffffffffffffffffffffffffff16021790555060608201518160030160006101000a81548173ffffffffffffffffffffffffffffffffffffffff021916908373ffffffffffffffffffffffffffffffffffffffff160217905550505050505050565b600960009054906101000a900473ffffffffffffffffffffffffffffffffffffffff1681565b6000600d80549050905090565b600f6020528060005260406000206000915054906101000a900473ffffffffffffffffffffffffffffffffffffffff1681565b6060600580548060200260200160405190810160405280929190818152602001828054801562001b2657602002820191906000526020600020905b8160009054906101000a900473ffffffffffffffffffffffffffffffffffffffff1673ffffffffffffffffffffffffffffffffffffffff168152602001906001019080831162001adb575b5050505050905090565b60116020528060005260406000206000915054906101000a900460ff1681565b6000600180549050905090565b60106020528060005260406000206000915054906101000a900473ffffffffffffffffffffffffffffffffffffffff1681565b600460009054906101000a900473ffffffffffffffffffffffffffffffffffffffff1681565b60006010600083815260200190815260200160002060009054906101000a900473ffffffffffffffffffffffffffffffffffffffff169050919050565b600c600086815260200190815260200160002060009054906101000a900460ff1615151562001c2157600080fd5b848484848462001c306200287f565b8086815260200180602001806020018581526020018473ffffffffffffffffffffffffffffffffffffffff1673ffffffffffffffffffffffffffffffffffffffff168152602001838103835287818151815260200191508051906020019080838360005b8381101562001cb157808201518184015260208101905062001c94565b50505050905090810190601f16801562001cdf5780820380516001836020036101000a031916815260200191505b50838103825286818151815260200191508051906020019080838360005b8381101562001d1a57808201518184015260208101905062001cfd565b50505050905090810190601f16801562001d485780820380516001836020036101000a031916815260200191505b50975050505050505050604051809103906000f08015801562001d6f573d6000803e3d6000fd5b50600360006101000a81548173ffffffffffffffffffffffffffffffffffffffff021916908373ffffffffffffffffffffffffffffffffffffffff160217905550600360009054906101000a900473ffffffffffffffffffffffffffffffffffffffff16600a60008373ffffffffffffffffffffffffffffffffffffffff1673ffffffffffffffffffffffffffffffffffffffff16815260200190815260200160002060006101000a81548173ffffffffffffffffffffffffffffffffffffffff021916908373ffffffffffffffffffffffffffffffffffffffff160217905550600360009054906101000a900473ffffffffffffffffffffffffffffffffffffffff16600b600087815260200190815260200160002060006101000a81548173ffffffffffffffffffffffffffffffffffffffff021916908373ffffffffffffffffffffffffffffffffffffffff160217905550600d8590806001815401808255809150509060018203906000526020600020016000909192909190915055506001600c600087815260200190815260200160002060006101000a81548160ff0219169083151502179055505050505050565b600260009054906101000a900473ffffffffffffffffffffffffffffffffffffffff1681565b60006011600087815260200190815260200160002060009054906101000a900460ff1615151562001f7957600080fd5b858585858562001f8862002890565b808681526020018060200180602001806020018573ffffffffffffffffffffffffffffffffffffffff1673ffffffffffffffffffffffffffffffffffffffff168152602001848103845288818151815260200191508051906020019080838360005b838110156200200757808201518184015260208101905062001fea565b50505050905090810190601f168015620020355780820380516001836020036101000a031916815260200191505b50848103835287818151815260200191508051906020019080838360005b838110156200207057808201518184015260208101905062002053565b50505050905090810190601f1680156200209e5780820380516001836020036101000a031916815260200191505b50848103825286818151815260200191508051906020019080838360005b83811015620020d9578082015181840152602081019050620020bc565b50505050905090810190601f168015620021075780820380516001836020036101000a031916815260200191505b5098505050505050505050604051809103906000f0801580156200212f573d6000803e3d6000fd5b509050806010600088815260200190815260200160002060006101000a81548173ffffffffffffffffffffffffffffffffffffffff021916908373ffffffffffffffffffffffffffffffffffffffff16021790555080600f60008473ffffffffffffffffffffffffffffffffffffffff1673ffffffffffffffffffffffffffffffffffffffff16815260200190815260200160002060006101000a81548173ffffffffffffffffffffffffffffffffffffffff021916908373ffffffffffffffffffffffffffffffffffffffff160217905550601286908060018154018082558091505090600182039060005260206000200160009091929091909150555060016011600088815260200190815260200160002060006101000a81548160ff0219169083151502179055508073ffffffffffffffffffffffffffffffffffffffff166383c17c55600260009054906101000a900473ffffffffffffffffffffffffffffffffffffffff166040518263ffffffff167c0100000000000000000000000000000000000000000000000000000000028152600401808273ffffffffffffffffffffffffffffffffffffffff1673ffffffffffffffffffffffffffffffffffffffff168152602001915050600060405180830381600087803b1580156200231857600080fd5b505af11580156200232d573d6000803e3d6000fd5b50505050505050505050565b600d818154811015156200234957fe5b906000526020600020016000915090505481565b6000602052806000526040600020600091509050806000015490806001015490806002015490806003018054600181600116156101000203166002900480601f0160208091040260200160405190810160405280929190818152602001828054600181600116156101000203166002900480156200241f5780601f10620023f3576101008083540402835291602001916200241f565b820191906000526020600020905b8154815290600101906020018083116200240157829003601f168201915b505050505090806004018054600181600116156101000203166002900480601f016020809104026020016040519081016040528092919081815260200182805460018160011615610100020316600290048015620024c15780601f106200249557610100808354040283529160200191620024c1565b820191906000526020600020905b815481529060010190602001808311620024a357829003601f168201915b5050505050905085565b6000601280549050905090565b60066020528060005260406000206000915054906101000a900473ffffffffffffffffffffffffffffffffffffffff1681565b600360009054906101000a900473ffffffffffffffffffffffffffffffffffffffff1681565b600b6020528060005260406000206000915054906101000a900473ffffffffffffffffffffffffffffffffffffffff1681565b6001818154811015156200257457fe5b9060005260206000209060040201600091509050806000018054600181600116156101000203166002900480601f016020809104026020016040519081016040528092919081815260200182805460018160011615610100020316600290048015620026245780601f10620025f85761010080835404028352916020019162002624565b820191906000526020600020905b8154815290600101906020018083116200260657829003601f168201915b505050505090806001018054600181600116156101000203166002900480601f016020809104026020016040519081016040528092919081815260200182805460018160011615610100020316600290048015620026c65780601f106200269a57610100808354040283529160200191620026c6565b820191906000526020600020905b815481529060010190602001808311620026a857829003601f168201915b5050505050908060020160009054906101000a900473ffffffffffffffffffffffffffffffffffffffff16908060030160009054906101000a900473ffffffffffffffffffffffffffffffffffffffff16905084565b600c6020528060005260406000206000915054906101000a900460ff1681565b600e60009054906101000a900473ffffffffffffffffffffffffffffffffffffffff1681565b60a06040519081016040528060008152602001600081526020016000815260200160608152602001606081525090565b828054600181600116156101000203166002900490600052602060002090601f016020900481019282601f10620027d557805160ff191683800117855562002806565b8280016001018555821562002806579182015b8281111562002805578251825591602001919060010190620027e8565b5b509050620028159190620028a1565b5090565b6080604051908101604052806060815260200160608152602001600073ffffffffffffffffffffffffffffffffffffffff168152602001600073ffffffffffffffffffffffffffffffffffffffff1681525090565b604051610adf80620028ca83390190565b6040516112d680620033a983390190565b60405161172c806200467f83390190565b620028c691905b80821115620028c2576000816000905550600101620028a8565b5090565b905600608060405234801561001057600080fd5b50604051610adf380380610adf83398101806040528101908080518201929190602001805182019291906020018051906020019092919050505082600390805190602001906100609291906100c1565b5081600490805190602001906100779291906100c1565b5080600260006101000a81548173ffffffffffffffffffffffffffffffffffffffff021916908373ffffffffffffffffffffffffffffffffffffffff160217905550505050610166565b828054600181600116156101000203166002900490600052602060002090601f016020900481019282601f1061010257805160ff1916838001178555610130565b82800160010185558215610130579182015b8281111561012f578251825591602001919060010190610114565b5b50905061013d9190610141565b5090565b61016391905b8082111561015f576000816000905550600101610147565b5090565b90565b61096a806101756000396000f300608060405260043610610083576000357c0100000000000000000000000000000000000000000000000000000000900463ffffffff1680631cae99e214610088578063323046b1146101185780634051ddac14610143578063481c6a75146102725780635e7975cb146102c9578063a0a3872c14610359578063d500958414610480575b600080fd5b34801561009457600080fd5b5061009d6104d7565b6040518080602001828103825283818151815260200191508051906020019080838360005b838110156100dd5780820151818401526020810190506100c2565b50505050905090810190601f16801561010a5780820380516001836020036101000a031916815260200191505b509250505060405180910390f35b34801561012457600080fd5b5061012d610575565b6040518082815260200191505060405180910390f35b34801561014f57600080fd5b5061015861057b565b6040518080602001806020018473ffffffffffffffffffffffffffffffffffffffff1673ffffffffffffffffffffffffffffffffffffffff168152602001838103835286818151815260200191508051906020019080838360005b838110156101ce5780820151818401526020810190506101b3565b50505050905090810190601f1680156101fb5780820380516001836020036101000a031916815260200191505b50838103825285818151815260200191508051906020019080838360005b83811015610234578082015181840152602081019050610219565b50505050905090810190601f1680156102615780820380516001836020036101000a031916815260200191505b509550505050505060405180910390f35b34801561027e57600080fd5b506102876106ea565b604051808273ffffffffffffffffffffffffffffffffffffffff1673ffffffffffffffffffffffffffffffffffffffff16815260200191505060405180910390f35b3480156102d557600080fd5b506102de610710565b6040518080602001828103825283818151815260200191508051906020019080838360005b8381101561031e578082015181840152602081019050610303565b50505050905090810190601f16801561034b5780820380516001836020036101000a031916815260200191505b509250505060405180910390f35b34801561036557600080fd5b50610384600480360381019080803590602001909291905050506107ae565b604051808681526020018581526020018481526020018060200180602001838103835285818151815260200191508051906020019080838360005b838110156103da5780820151818401526020810190506103bf565b50505050905090810190601f1680156104075780820380516001836020036101000a031916815260200191505b50838103825284818151815260200191508051906020019080838360005b83811015610440578082015181840152602081019050610425565b50505050905090810190601f16801561046d5780820380516001836020036101000a031916815260200191505b5097505050505050505060405180910390f35b34801561048c57600080fd5b50610495610914565b604051808273ffffffffffffffffffffffffffffffffffffffff1673ffffffffffffffffffffffffffffffffffffffff16815260200191505060405180910390f35b60038054600181600116156101000203166002900480601f01602080910402602001604051908101604052809291908181526020018280546001816001161561010002031660029004801561056d5780601f106105425761010080835404028352916020019161056d565b820191906000526020600020905b81548152906001019060200180831161055057829003601f168201915b505050505081565b60015481565b606080600060036004600260009054906101000a900473ffffffffffffffffffffffffffffffffffffffff16828054600181600116156101000203166002900480601f01602080910402602001604051908101604052809291908181526020018280546001816001161561010002031660029004801561063c5780601f106106115761010080835404028352916020019161063c565b820191906000526020600020905b81548152906001019060200180831161061f57829003601f168201915b50505050509250818054600181600116156101000203166002900480601f0160208091040260200160405190810160405280929190818152602001828054600181600116156101000203166002900480156106d85780601f106106ad576101008083540402835291602001916106d8565b820191906000526020600020905b8154815290600101906020018083116106bb57829003601f168201915b50505050509150925092509250909192565b600260009054906101000a900473ffffffffffffffffffffffffffffffffffffffff1681565b60048054600181600116156101000203166002900480601f0160208091040260200160405190810160405280929190818152602001828054600181600116156101000203166002900480156107a65780601f1061077b576101008083540402835291602001916107a6565b820191906000526020600020905b81548152906001019060200180831161078957829003601f168201915b505050505081565b6000602052806000526040600020600091509050806000015490806001015490806002015490806003018054600181600116156101000203166002900480601f01602080910402602001604051908101604052809291908181526020018280546001816001161561010002031660029004801561086c5780601f106108415761010080835404028352916020019161086c565b820191906000526020600020905b81548152906001019060200180831161084f57829003601f168201915b505050505090806004018054600181600116156101000203166002900480601f01602080910402602001604051908101604052809291908181526020018280546001816001161561010002031660029004801561090a5780601f106108df5761010080835404028352916020019161090a565b820191906000526020600020905b8154815290600101906020018083116108ed57829003601f168201915b5050505050905085565b6000600260009054906101000a900473ffffffffffffffffffffffffffffffffffffffff169050905600a165627a7a7230582010c7656dd84f0b792c0a700bd84516ce6b8078e8f09e26446a06341e88bfcd6f002960806040523480156200001157600080fd5b50604051620012d6380380620012d68339810180604052810190808051906020019092919080518201929190602001805182019291906020018051906020019092919080519060200190929190505050836000908051906020019062000079929190620000ed565b50826002908051906020019062000092929190620000ed565b508160038190555080600460006101000a81548173ffffffffffffffffffffffffffffffffffffffff021916908373ffffffffffffffffffffffffffffffffffffffff1602179055508460018190555050505050506200019c565b828054600181600116156101000203166002900490600052602060002090601f016020900481019282601f106200013057805160ff191683800117855562000161565b8280016001018555821562000161579182015b828111156200016057825182559160200191906001019062000143565b5b50905062000170919062000174565b5090565b6200019991905b80821115620001955760008160009055506001016200017b565b5090565b90565b61112a80620001ac6000396000f3006080604052600436106100db576000357c0100000000000000000000000000000000000000000000000000000000900463ffffffff16806312dc9013146100e0578063262a9dff1461027e5780634564d890146102a9578063466c6db7146102d6578063481c6a75146103a35780634e8c010d146103fa57806379caad8614610425578063975a430f146104b55780639788ffc6146104e057806398f6f0e11461050d578063aee144601461059d578063c33465fa146106f0578063e07f444414610731578063e09183a61461075c578063e571fd2d146107a1575b600080fd5b3480156100ec57600080fd5b5061010b60048036038101908080359060200190929190505050610828565b6040518088815260200187815260200186815260200180602001806020018060200185151515158152602001848103845288818151815260200191508051906020019080838360005b8381101561016f578082015181840152602081019050610154565b50505050905090810190601f16801561019c5780820380516001836020036101000a031916815260200191505b50848103835287818151815260200191508051906020019080838360005b838110156101d55780820151818401526020810190506101ba565b50505050905090810190601f1680156102025780820380516001836020036101000a031916815260200191505b50848103825286818151815260200191508051906020019080838360005b8381101561023b578082015181840152602081019050610220565b50505050905090810190601f1680156102685780820380516001836020036101000a031916815260200191505b509a505050505050505050505060405180910390f35b34801561028a57600080fd5b50610293610a3f565b6040518082815260200191505060405180910390f35b3480156102b557600080fd5b506102d460048036038101908080359060200190929190505050610a45565b005b3480156102e257600080fd5b506103a1600480360381019080803590602001909291908035906020019092919080359060200190929190803590602001908201803590602001908080601f0160208091040260200160405190810160405280939291908181526020018383808284378201915050505050509192919290803590602001908201803590602001908080601f0160208091040260200160405190810160405280939291908181526020018383808284378201915050505050509192919290505050610a87565b005b3480156103af57600080fd5b506103b8610bb8565b604051808273ffffffffffffffffffffffffffffffffffffffff1673ffffffffffffffffffffffffffffffffffffffff16815260200191505060405180910390f35b34801561040657600080fd5b5061040f610bde565b6040518082815260200191505060405180910390f35b34801561043157600080fd5b5061043a610be4565b6040518080602001828103825283818151815260200191508051906020019080838360005b8381101561047a57808201518184015260208101905061045f565b50505050905090810190601f1680156104a75780820380516001836020036101000a031916815260200191505b509250505060405180910390f35b3480156104c157600080fd5b506104ca610c82565b6040518082815260200191505060405180910390f35b3480156104ec57600080fd5b5061050b60048036038101908080359060200190929190505050610c8f565b005b34801561051957600080fd5b50610522610cd0565b6040518080602001828103825283818151815260200191508051906020019080838360005b83811015610562578082015181840152602081019050610547565b50505050905090810190601f16801561058f5780820380516001836020036101000a031916815260200191505b509250505060405180910390f35b3480156105a957600080fd5b506105c860048036038101908080359060200190929190505050610d6e565b6040518086815260200180602001806020018581526020018473ffffffffffffffffffffffffffffffffffffffff1673ffffffffffffffffffffffffffffffffffffffff168152602001838103835287818151815260200191508051906020019080838360005b8381101561064a57808201518184015260208101905061062f565b50505050905090810190601f1680156106775780820380516001836020036101000a031916815260200191505b50838103825286818151815260200191508051906020019080838360005b838110156106b0578082015181840152602081019050610695565b50505050905090810190601f1680156106dd5780820380516001836020036101000a031916815260200191505b5097505050505050505060405180910390f35b3480156106fc57600080fd5b5061071b60048036038101908080359060200190929190505050610eee565b6040518082815260200191505060405180910390f35b34801561073d57600080fd5b50610746610f11565b6040518082815260200191505060405180910390f35b34801561076857600080fd5b5061078760048036038101908080359060200190929190505050610f17565b604051808215151515815260200191505060405180910390f35b3480156107ad57600080fd5b5061081260048036038101908080359060200190929190803590602001908201803590602001908080601f0160208091040260200160405190810160405280939291908181526020018383808284378201915050505050509192919290505050610f37565b6040518082815260200191505060405180910390f35b6008602052806000526040600020600091509050806000015490806001015490806002015490806003018054600181600116156101000203166002900480601f0160208091040260200160405190810160405280929190818152602001828054600181600116156101000203166002900480156108e65780601f106108bb576101008083540402835291602001916108e6565b820191906000526020600020905b8154815290600101906020018083116108c957829003601f168201915b505050505090806004018054600181600116156101000203166002900480601f0160208091040260200160405190810160405280929190818152602001828054600181600116156101000203166002900480156109845780601f1061095957610100808354040283529160200191610984565b820191906000526020600020905b81548152906001019060200180831161096757829003601f168201915b505050505090806005018054600181600116156101000203166002900480601f016020809104026020016040519081016040528092919081815260200182805460018160011615610100020316600290048015610a225780601f106109f757610100808354040283529160200191610a22565b820191906000526020600020905b815481529060010190602001808311610a0557829003601f168201915b5050505050908060060160009054906101000a900460ff16905087565b60035481565b60006005600083815260200190815260200160002060006101000a81548160ff0219169083151502179055506006600081548092919060019003919050555050565b610a8f610f99565b60e0604051908101604052808781526020018681526020018581526020018481526020018381526020016020604051908101604052806000815250815260200160001515815250905080600860008881526020019081526020016000206000820151816000015560208201518160010155604082015181600201556060820151816003019080519060200190610b26929190610fd9565b506080820151816004019080519060200190610b43929190610fd9565b5060a0820151816005019080519060200190610b60929190610fd9565b5060c08201518160060160006101000a81548160ff0219169083151502179055509050506007869080600181540180825580915050906001820390600052602060002001600090919290919091505550505050505050565b600460009054906101000a900473ffffffffffffffffffffffffffffffffffffffff1681565b60065481565b60028054600181600116156101000203166002900480601f016020809104026020016040519081016040528092919081815260200182805460018160011615610100020316600290048015610c7a5780601f10610c4f57610100808354040283529160200191610c7a565b820191906000526020600020905b815481529060010190602001808311610c5d57829003601f168201915b505050505081565b6000600780549050905090565b60016005600083815260200190815260200160002060006101000a81548160ff02191690831515021790555060066000815480929190600101919050555050565b60008054600181600116156101000203166002900480601f016020809104026020016040519081016040528092919081815260200182805460018160011615610100020316600290048015610d665780601f10610d3b57610100808354040283529160200191610d66565b820191906000526020600020905b815481529060010190602001808311610d4957829003601f168201915b505050505081565b600060608060008060015460006002600354600460009054906101000a900473ffffffffffffffffffffffffffffffffffffffff16838054600181600116156101000203166002900480601f016020809104026020016040519081016040528092919081815260200182805460018160011615610100020316600290048015610e385780601f10610e0d57610100808354040283529160200191610e38565b820191906000526020600020905b815481529060010190602001808311610e1b57829003601f168201915b50505050509350828054600181600116156101000203166002900480601f016020809104026020016040519081016040528092919081815260200182805460018160011615610100020316600290048015610ed45780601f10610ea957610100808354040283529160200191610ed4565b820191906000526020600020905b815481529060010190602001808311610eb757829003601f168201915b505050505092509450945094509450945091939590929450565b600781815481101515610efd57fe5b906000526020600020016000915090505481565b60015481565b60056020528060005260406000206000915054906101000a900460ff1681565b600081600860008581526020019081526020016000206005019080519060200190610f63929190611059565b5060016008600085815260200190815260200160002060060160006101000a81548160ff02191690831515021790555092915050565b60e0604051908101604052806000815260200160008152602001600081526020016060815260200160608152602001606081526020016000151581525090565b828054600181600116156101000203166002900490600052602060002090601f016020900481019282601f1061101a57805160ff1916838001178555611048565b82800160010185558215611048579182015b8281111561104757825182559160200191906001019061102c565b5b50905061105591906110d9565b5090565b828054600181600116156101000203166002900490600052602060002090601f016020900481019282601f1061109a57805160ff19168380011785556110c8565b828001600101855582156110c8579182015b828111156110c75782518255916020019190600101906110ac565b5b5090506110d591906110d9565b5090565b6110fb91905b808211156110f75760008160009055506001016110df565b5090565b905600a165627a7a72305820a1a20509658773ecd4b3c9c9d9904e3edcb921a3111019981310c8b24f9b1977002960806040523480156200001157600080fd5b506040516200172c3803806200172c8339810180604052810190808051906020019092919080518201929190602001805182019291906020018051820192919060200180519060200190929190505050836000908051906020019062000079929190620000ff565b50826002908051906020019062000092929190620000ff565b508160039080519060200190620000ab929190620000ff565b5080600460006101000a81548173ffffffffffffffffffffffffffffffffffffffff021916908373ffffffffffffffffffffffffffffffffffffffff160217905550846001819055505050505050620001ae565b828054600181600116156101000203166002900490600052602060002090601f016020900481019282601f106200014257805160ff191683800117855562000173565b8280016001018555821562000173579182015b828111156200017257825182559160200191906001019062000155565b5b50905062000182919062000186565b5090565b620001ab91905b80821115620001a75760008160009055506001016200018d565b5090565b90565b61156e80620001be6000396000f3006080604052600436106100ba576000357c0100000000000000000000000000000000000000000000000000000000900463ffffffff16806312dc9013146100bf5780633b2c22b01461025d578063466c6db7146102ed578063481c6a75146103ba578063767027231461041157806379caad86146104a157806383c17c5514610531578063aee1446014610574578063c33465fa1461072c578063d850a8711461076d578063e571fd2d14610798578063f9d344c91461080b575b600080fd5b3480156100cb57600080fd5b506100ea60048036038101908080359060200190929190505050610862565b6040518088815260200187815260200186815260200180602001806020018060200185151515158152602001848103845288818151815260200191508051906020019080838360005b8381101561014e578082015181840152602081019050610133565b50505050905090810190601f16801561017b5780820380516001836020036101000a031916815260200191505b50848103835287818151815260200191508051906020019080838360005b838110156101b4578082015181840152602081019050610199565b50505050905090810190601f1680156101e15780820380516001836020036101000a031916815260200191505b50848103825286818151815260200191508051906020019080838360005b8381101561021a5780820151818401526020810190506101ff565b50505050905090810190601f1680156102475780820380516001836020036101000a031916815260200191505b509a505050505050505050505060405180910390f35b34801561026957600080fd5b50610272610a79565b6040518080602001828103825283818151815260200191508051906020019080838360005b838110156102b2578082015181840152602081019050610297565b50505050905090810190601f1680156102df5780820380516001836020036101000a031916815260200191505b509250505060405180910390f35b3480156102f957600080fd5b506103b8600480360381019080803590602001909291908035906020019092919080359060200190929190803590602001908201803590602001908080601f0160208091040260200160405190810160405280939291908181526020018383808284378201915050505050509192919290803590602001908201803590602001908080601f0160208091040260200160405190810160405280939291908181526020018383808284378201915050505050509192919290505050610b17565b005b3480156103c657600080fd5b506103cf610c48565b604051808273ffffffffffffffffffffffffffffffffffffffff1673ffffffffffffffffffffffffffffffffffffffff16815260200191505060405180910390f35b34801561041d57600080fd5b50610426610c6e565b6040518080602001828103825283818151815260200191508051906020019080838360005b8381101561046657808201518184015260208101905061044b565b50505050905090810190601f1680156104935780820380516001836020036101000a031916815260200191505b509250505060405180910390f35b3480156104ad57600080fd5b506104b6610d0c565b6040518080602001828103825283818151815260200191508051906020019080838360005b838110156104f65780820151818401526020810190506104db565b50505050905090810190601f1680156105235780820380516001836020036101000a031916815260200191505b509250505060405180910390f35b34801561053d57600080fd5b50610572600480360381019080803573ffffffffffffffffffffffffffffffffffffffff169060200190929190505050610daa565b005b34801561058057600080fd5b5061059f60048036038101908080359060200190929190505050610dee565b604051808681526020018060200180602001806020018573ffffffffffffffffffffffffffffffffffffffff1673ffffffffffffffffffffffffffffffffffffffff168152602001848103845288818151815260200191508051906020019080838360005b8381101561061f578082015181840152602081019050610604565b50505050905090810190601f16801561064c5780820380516001836020036101000a031916815260200191505b50848103835287818151815260200191508051906020019080838360005b8381101561068557808201518184015260208101905061066a565b50505050905090810190601f1680156106b25780820380516001836020036101000a031916815260200191505b50848103825286818151815260200191508051906020019080838360005b838110156106eb5780820151818401526020810190506106d0565b50505050905090810190601f1680156107185780820380516001836020036101000a031916815260200191505b509850505050505050505060405180910390f35b34801561073857600080fd5b5061075760048036038101908080359060200190929190505050611008565b6040518082815260200191505060405180910390f35b34801561077957600080fd5b5061078261102b565b6040518082815260200191505060405180910390f35b3480156107a457600080fd5b5061080960048036038101908080359060200190929190803590602001908201803590602001908080601f0160208091040260200160405190810160405280939291908181526020018383808284378201915050505050509192919290505050611031565b005b34801561081757600080fd5b506108206113b7565b604051808273ffffffffffffffffffffffffffffffffffffffff1673ffffffffffffffffffffffffffffffffffffffff16815260200191505060405180910390f35b600b602052806000526040600020600091509050806000015490806001015490806002015490806003018054600181600116156101000203166002900480601f0160208091040260200160405190810160405280929190818152602001828054600181600116156101000203166002900480156109205780601f106108f557610100808354040283529160200191610920565b820191906000526020600020905b81548152906001019060200180831161090357829003601f168201915b505050505090806004018054600181600116156101000203166002900480601f0160208091040260200160405190810160405280929190818152602001828054600181600116156101000203166002900480156109be5780601f10610993576101008083540402835291602001916109be565b820191906000526020600020905b8154815290600101906020018083116109a157829003601f168201915b505050505090806005018054600181600116156101000203166002900480601f016020809104026020016040519081016040528092919081815260200182805460018160011615610100020316600290048015610a5c5780601f10610a3157610100808354040283529160200191610a5c565b820191906000526020600020905b815481529060010190602001808311610a3f57829003601f168201915b5050505050908060060160009054906101000a900460ff16905087565b60038054600181600116156101000203166002900480601f016020809104026020016040519081016040528092919081815260200182805460018160011615610100020316600290048015610b0f5780601f10610ae457610100808354040283529160200191610b0f565b820191906000526020600020905b815481529060010190602001808311610af257829003601f168201915b505050505081565b610b1f6113dd565b60e0604051908101604052808781526020018681526020018581526020018481526020018381526020016020604051908101604052806000815250815260200160001515815250905080600b60008881526020019081526020016000206000820151816000015560208201518160010155604082015181600201556060820151816003019080519060200190610bb692919061141d565b506080820151816004019080519060200190610bd392919061141d565b5060a0820151816005019080519060200190610bf092919061141d565b5060c08201518160060160006101000a81548160ff0219169083151502179055509050506009869080600181540180825580915050906001820390600052602060002001600090919290919091505550505050505050565b600460009054906101000a900473ffffffffffffffffffffffffffffffffffffffff1681565b60008054600181600116156101000203166002900480601f016020809104026020016040519081016040528092919081815260200182805460018160011615610100020316600290048015610d045780601f10610cd957610100808354040283529160200191610d04565b820191906000526020600020905b815481529060010190602001808311610ce757829003601f168201915b505050505081565b60028054600181600116156101000203166002900480601f016020809104026020016040519081016040528092919081815260200182805460018160011615610100020316600290048015610da25780601f10610d7757610100808354040283529160200191610da2565b820191906000526020600020905b815481529060010190602001808311610d8557829003601f168201915b505050505081565b80600a60006101000a81548173ffffffffffffffffffffffffffffffffffffffff021916908373ffffffffffffffffffffffffffffffffffffffff16021790555050565b60006060806060600085600060026003600460009054906101000a900473ffffffffffffffffffffffffffffffffffffffff16838054600181600116156101000203166002900480601f016020809104026020016040519081016040528092919081815260200182805460018160011615610100020316600290048015610eb65780601f10610e8b57610100808354040283529160200191610eb6565b820191906000526020600020905b815481529060010190602001808311610e9957829003601f168201915b50505050509350828054600181600116156101000203166002900480601f016020809104026020016040519081016040528092919081815260200182805460018160011615610100020316600290048015610f525780601f10610f2757610100808354040283529160200191610f52565b820191906000526020600020905b815481529060010190602001808311610f3557829003601f168201915b50505050509250818054600181600116156101000203166002900480601f016020809104026020016040519081016040528092919081815260200182805460018160011615610100020316600290048015610fee5780601f10610fc357610100808354040283529160200191610fee565b820191906000526020600020905b815481529060010190602001808311610fd157829003601f168201915b505050505091509450945094509450945091939590929450565b60098181548110151561101757fe5b906000526020600020016000915090505481565b60015481565b6000600b6000848152602001908152602001600020600101549050600a60009054906101000a900473ffffffffffffffffffffffffffffffffffffffff16600760006101000a81548173ffffffffffffffffffffffffffffffffffffffff021916908373ffffffffffffffffffffffffffffffffffffffff160217905550600760009054906101000a900473ffffffffffffffffffffffffffffffffffffffff1673ffffffffffffffffffffffffffffffffffffffff1663097ee8cd826040518263ffffffff167c010000000000000000000000000000000000000000000000000000000002815260040180828152602001915050602060405180830381600087803b15801561114057600080fd5b505af1158015611154573d6000803e3d6000fd5b505050506040513d602081101561116a57600080fd5b8101908080519060200190929190505050600560006101000a81548173ffffffffffffffffffffffffffffffffffffffff021916908373ffffffffffffffffffffffffffffffffffffffff160217905550600560009054906101000a900473ffffffffffffffffffffffffffffffffffffffff16600860006101000a81548173ffffffffffffffffffffffffffffffffffffffff021916908373ffffffffffffffffffffffffffffffffffffffff160217905550600860009054906101000a900473ffffffffffffffffffffffffffffffffffffffff1673ffffffffffffffffffffffffffffffffffffffff1663e571fd2d84846040518363ffffffff167c01000000000000000000000000000000000000000000000000000000000281526004018083815260200180602001828103825283818151815260200191508051906020019080838360005b838110156112cf5780820151818401526020810190506112b4565b50505050905090810190601f1680156112fc5780820380516001836020036101000a031916815260200191505b509350505050602060405180830381600087803b15801561131c57600080fd5b505af1158015611330573d6000803e3d6000fd5b505050506040513d602081101561134657600080fd5b81019080805190602001909291905050505081600b6000858152602001908152602001600020600501908051906020019061138292919061149d565b506001600b600085815260200190815260200160002060060160006101000a81548160ff021916908315150217905550505050565b600560009054906101000a900473ffffffffffffffffffffffffffffffffffffffff1681565b60e0604051908101604052806000815260200160008152602001600081526020016060815260200160608152602001606081526020016000151581525090565b828054600181600116156101000203166002900490600052602060002090601f016020900481019282601f1061145e57805160ff191683800117855561148c565b8280016001018555821561148c579182015b8281111561148b578251825591602001919060010190611470565b5b509050611499919061151d565b5090565b828054600181600116156101000203166002900490600052602060002090601f016020900481019282601f106114de57805160ff191683800117855561150c565b8280016001018555821561150c579182015b8281111561150b5782518255916020019190600101906114f0565b5b509050611519919061151d565b5090565b61153f91905b8082111561153b576000816000905550600101611523565b5090565b905600a165627a7a72305820c9fc68861151cb76b8a55ce108f88e41ef9b53b5c3be56241b74ba443abb986d0029a165627a7a72305820312cce6e104b6f7b650d7736afb7631adeb162e182be0ba7dea1f2228977bea70029",
  "source": "pragma solidity ^0.4.24;\n\nimport \"./Doctor.sol\";\nimport \"./Patient.sol\";\ncontract ReceptionsitFactory{\n    // struct for reception summary and appointment\n   struct ReceptionSummary{\n        string hospitalName;\n        string receptionistName;\n        address manager;\n        address contractAddress;\n\n    }\n\n    struct Appointement{\n    uint appointementId;\n    uint patientId;\n    uint doctorId;\n    string date;\n    string chepComplaint;\n  }\n\n\n        mapping(uint => Appointement) public appointements;\n        ReceptionSummary[] public receptionSummary;\n        address public factoryAddress;\n        Patient public patient;\n        Doctor public doctor;\n        address[] public deployedReceptionist;\n        mapping (address=>address) public accountToAddress;\n        mapping(address => bool) public accountCheck;\n        address public newReceptionist ;\n        address public manager;\n        //for patient\n        mapping (address=>address) public accountToAddressPatient;\n        mapping (uint => address)  public patientIdToAddress;\n        mapping(uint=>bool) public checkPatientId;\n        uint[] public patientId;\n        address public patientAddress;\n\n        //for Doctor\n\n        mapping (address=>address) public accountToAddressDoctor;\n        mapping (uint => address)  public doctorIdToAddress;\n        mapping(uint=>bool) public checkDoctorId;\n        uint[] public doctorId;\n\n\n    constructor(){\n        factoryAddress  = this;\n    }\n\n   function createReceptionist(string _hospitalName, string _name ) public{\n       require(!(accountCheck[msg.sender]));\n         newReceptionist = new Receptionsit(_hospitalName, _name , msg.sender);\n        deployedReceptionist.push(newReceptionist);\n        accountToAddress[msg.sender] = newReceptionist;\n        accountCheck[msg.sender] = true;\n\n        ReceptionSummary memory newRecetionSummary= ReceptionSummary({\n            hospitalName: _hospitalName ,\n            receptionistName : _name,\n            manager: msg.sender,\n            contractAddress : newReceptionist\n\n        })  ;\n        receptionSummary.push(newRecetionSummary);\n    }\n\n     function getReceptionList() public view returns(uint){\n         return receptionSummary.length;\n     }\n\n    function getDeployedCompaigns() public view returns(address[]){\n        return deployedReceptionist;\n    }\n\n\n   function addPatient(uint _patientId, string _patientName, string _gender, uint _age, address _account) public {\n                 require(!checkPatientId[_patientId]);\n\n          patient = new Patient(_patientId , _patientName , _gender , _age , _account);\n          accountToAddressPatient[_account] = patient;\n        patientIdToAddress[_patientId] = patient;\n        patientId.push(_patientId);\n        checkPatientId[_patientId]=true;\n\n    }\n\n    function addDoctor ( uint _DoctorId , string _DoctorName , string _DoctorGender, string _qualification , address _account){\n        require(!checkDoctorId[_DoctorId]);\n        Doctor doc = new Doctor(_DoctorId , _DoctorName , _DoctorGender , _qualification , _account);\n        doctorIdToAddress[_DoctorId]= doc;\n        accountToAddressDoctor[_account] = doc;\n        doctorId.push(_DoctorId);\n        checkDoctorId[_DoctorId] = true;\n        doc.setFactoryAddress(factoryAddress);\n\n\n    }\n\n    function getPatientList() public view returns(uint){\n      return patientId.length;\n  }\n\n    function getDoctorList() public view returns(uint){\n        return(doctorId.length);\n    }\n\n\n  function createAppointment( uint  _AppointementId, uint _PatientId , uint _DoctorId, string _Date , string _chepComplaint ) public  {\n\n    Appointement memory newAppointement = Appointement({\n      appointementId : _AppointementId,\n      patientId : _PatientId,\n      doctorId : _DoctorId,\n      date : _Date,\n      chepComplaint: _chepComplaint\n    });\n    appointements[_AppointementId] = newAppointement;\n    patientAddress= getPatientAddress(_PatientId);\n    Patient patient1 = Patient(patientAddress);\n    patient1.addAppointment(_AppointementId, _PatientId , _DoctorId , _Date, _chepComplaint);\n    address doctorAddress = getDoctorAddress(_DoctorId);\n    Doctor doctor = Doctor(doctorAddress);\n    doctor.addAppointment(_AppointementId , _PatientId , _DoctorId , _Date , _chepComplaint);\n\n  }\n\n\n  function getPatientAddress( uint patientId)public view returns (address){\n      return(patientIdToAddress[patientId]);\n  }\n\nfunction getDoctorAddress(uint _DoctorId) public view returns(address){\n    return (doctorIdToAddress[_DoctorId]);\n}\n}\n\ncontract Receptionsit{\n\n     struct Appointement{\n            uint appointementId;\n            uint patientId;\n            uint doctorId;\n            string date;\n            string chepComplaint;\n        }\n\n        mapping(uint => Appointement) public appointements;\n\n    uint public date;\n    address public manager;\n    string public hospitalName;\n    string public receptionistName;\n    Patient patient;\n\n    constructor (string _hospitalName, string _receptionistName , address _manager) public {\n        hospitalName = _hospitalName;\n        receptionistName = _receptionistName;\n        manager = _manager;\n\n    }\n\n    modifier restricted{\n        require(msg.sender == manager);\n        _;\n    }\n\n    function getManager() public returns(address){\n        return(manager);\n    }\n\n    function getSummary()public view returns(string , string , address ){\n        return(hospitalName , receptionistName , manager);\n    }\n\n}\n",
  "sourcePath": "/home/aman/Documents/health-care/contracts/Receptionist.sol",
  "compiler": {
    "name": "solc",
    "version": "0.4.24+commit.e67f0147.Emscripten.clang"
  },
  "schemaVersion": "2.0.1",
  "updatedAt": "2019-01-17T14:23:05.390Z"
}