{
  "contractName": "Receptionsit",
  "abi": [
    {
      "constant": true,
      "inputs": [],
      "name": "hospitalName",
      "outputs": [
        {
          "name": "",
          "type": "string"
        }
      ],
      "payable": false,
      "stateMutability": "view",
      "type": "function"
    },
    {
      "constant": true,
      "inputs": [],
      "name": "manager",
      "outputs": [
        {
          "name": "",
          "type": "address"
        }
      ],
      "payable": false,
      "stateMutability": "view",
      "type": "function"
    },
    {
      "constant": true,
      "inputs": [],
      "name": "receptionistName",
      "outputs": [
        {
          "name": "",
          "type": "string"
        }
      ],
      "payable": false,
      "stateMutability": "view",
      "type": "function"
    },
    {
      "inputs": [
        {
          "name": "_hospitalName",
          "type": "string"
        },
        {
          "name": "_receptionistName",
          "type": "string"
        },
        {
          "name": "_manager",
          "type": "address"
        }
      ],
      "payable": false,
      "stateMutability": "nonpayable",
      "type": "constructor"
    },
    {
      "constant": true,
      "inputs": [],
      "name": "getSummary",
      "outputs": [
        {
          "name": "",
          "type": "string"
        },
        {
          "name": "",
          "type": "string"
        },
        {
          "name": "",
          "type": "address"
        }
      ],
      "payable": false,
      "stateMutability": "view",
      "type": "function"
    }
  ],
  "bytecode": "0x608060405234801561001057600080fd5b5060405161077c38038061077c83398101806040528101908080518201929190602001805182019291906020018051906020019092919050505082600190805190602001906100609291906100c0565b5081600290805190602001906100779291906100c0565b50806000806101000a81548173ffffffffffffffffffffffffffffffffffffffff021916908373ffffffffffffffffffffffffffffffffffffffff160217905550505050610165565b828054600181600116156101000203166002900490600052602060002090601f016020900481019282601f1061010157805160ff191683800117855561012f565b8280016001018555821561012f579182015b8281111561012e578251825591602001919060010190610113565b5b50905061013c9190610140565b5090565b61016291905b8082111561015e576000816000905550600101610146565b5090565b90565b610608806101746000396000f300608060405260043610610062576000357c0100000000000000000000000000000000000000000000000000000000900463ffffffff1680631cae99e2146100675780634051ddac146100f7578063481c6a75146102265780635e7975cb1461027d575b600080fd5b34801561007357600080fd5b5061007c61030d565b6040518080602001828103825283818151815260200191508051906020019080838360005b838110156100bc5780820151818401526020810190506100a1565b50505050905090810190601f1680156100e95780820380516001836020036101000a031916815260200191505b509250505060405180910390f35b34801561010357600080fd5b5061010c6103ab565b6040518080602001806020018473ffffffffffffffffffffffffffffffffffffffff1673ffffffffffffffffffffffffffffffffffffffff168152602001838103835286818151815260200191508051906020019080838360005b83811015610182578082015181840152602081019050610167565b50505050905090810190601f1680156101af5780820380516001836020036101000a031916815260200191505b50838103825285818151815260200191508051906020019080838360005b838110156101e85780820151818401526020810190506101cd565b50505050905090810190601f1680156102155780820380516001836020036101000a031916815260200191505b509550505050505060405180910390f35b34801561023257600080fd5b5061023b610519565b604051808273ffffffffffffffffffffffffffffffffffffffff1673ffffffffffffffffffffffffffffffffffffffff16815260200191505060405180910390f35b34801561028957600080fd5b5061029261053e565b6040518080602001828103825283818151815260200191508051906020019080838360005b838110156102d25780820151818401526020810190506102b7565b50505050905090810190601f1680156102ff5780820380516001836020036101000a031916815260200191505b509250505060405180910390f35b60018054600181600116156101000203166002900480601f0160208091040260200160405190810160405280929190818152602001828054600181600116156101000203166002900480156103a35780601f10610378576101008083540402835291602001916103a3565b820191906000526020600020905b81548152906001019060200180831161038657829003601f168201915b505050505081565b6060806000600160026000809054906101000a900473ffffffffffffffffffffffffffffffffffffffff16828054600181600116156101000203166002900480601f01602080910402602001604051908101604052809291908181526020018280546001816001161561010002031660029004801561046b5780601f106104405761010080835404028352916020019161046b565b820191906000526020600020905b81548152906001019060200180831161044e57829003601f168201915b50505050509250818054600181600116156101000203166002900480601f0160208091040260200160405190810160405280929190818152602001828054600181600116156101000203166002900480156105075780601f106104dc57610100808354040283529160200191610507565b820191906000526020600020905b8154815290600101906020018083116104ea57829003601f168201915b50505050509150925092509250909192565b6000809054906101000a900473ffffffffffffffffffffffffffffffffffffffff1681565b60028054600181600116156101000203166002900480601f0160208091040260200160405190810160405280929190818152602001828054600181600116156101000203166002900480156105d45780601f106105a9576101008083540402835291602001916105d4565b820191906000526020600020905b8154815290600101906020018083116105b757829003601f168201915b5050505050815600a165627a7a723058203cc230c7dff05065de49ab658bfad3d3fa17eb9330e809f835264c054cefe4c20029",
  "source": "pragma solidity ^0.4.24;\n\n\ncontract ReceptionsitFactory{\n    struct ReceptionSummary{\n        string hospitalName;\n        string receptionistName;\n        address manager;\n        address contractAddress;\n\n    }\n\n    ReceptionSummary[] public receptionSummary;\n        address[] public deployedReceptionist;\n        mapping (address=>address) public accountToAddress;\n        mapping(address => bool) public accountCheck;\n        address public newReceptionist ;\n        address public manager;\n\n   function createReceptionist(string _hospitalName, string _name ) public{\n       require(!(accountCheck[msg.sender]));\n         newReceptionist = new Receptionsit(_hospitalName, _name, msg.sender);\n        deployedReceptionist.push(newReceptionist);\n        accountToAddress[msg.sender] = newReceptionist;\n        accountCheck[msg.sender] = true;\n\n        ReceptionSummary memory newRecetionSummary= ReceptionSummary({\n            hospitalName: _hospitalName ,\n            receptionistName : _name,\n            manager: msg.sender,\n            contractAddress : newReceptionist\n\n        })  ;\n        receptionSummary.push(newRecetionSummary);\n    }\nfunction getDeployedReception() public view returns(uint){\n  return deployedReceptionist.length;\n}\n    function getReceptionList() public view returns(uint){\n             return receptionSummary.length;\n         }\n\n\n}\n\ncontract Receptionsit{\n    //Patient public patient1;\n    //Doctor public doctor1;\n    //address public patient;\n    //address public doctor;\n    //uint public date;\n    address public manager;\n    string public hospitalName;\n    string public receptionistName;\n    //address [] public patientList;\n    //address [] public doctorList;\n    //address [] public listOfPatientAccount;\n    //address [] public listOfDoctorAccount;\n    //string public  _PatientName;\n\n\n    constructor (string _hospitalName, string _receptionistName , address _manager) public {\n        hospitalName = _hospitalName;\n        receptionistName = _receptionistName;\n        manager = _manager;\n\n    }\n\n   function getSummary() public view returns(string , string , address){\n     return(hospitalName  , receptionistName , manager);\n   }\n\n    modifier restricted{\n        require(msg.sender == manager);\n        _;\n    }\n  }\n",
  "sourcePath": "/home/aman/Desktop/health-care/contracts/Receptionist.sol",
  "compiler": {
    "name": "solc",
    "version": "0.4.24+commit.e67f0147.Emscripten.clang"
  },
  "schemaVersion": "2.0.1",
  "updatedAt": "2018-12-08T15:02:58.553Z"
}